:2000000000802020B36500002B4100002B4100000000000000000000000000000000000030
:200020000000000000000000000000002B41000000000000000000002B4100002B4100007C
:200040002B410000A14C00002B4100002B4100002D5F0000595F00002B4100002B41000053
:20006000000000002B4100002B41000000000000000000007D6500002B4100007565000080
:20008000516200002B4100002B4100002B4100002B4100002B410000000000000000000091
:2000A0002B4100002B41000000000000000000002B410000000000002B4100002B41000024
:2000C000F0B5FFB08EB0049306920646929802900025E84305908C913468204606F0AAF9BA
:2000E00021188B9503918C4200D3C2E00020879087A908738890059889902F46049D207872
:20010000002800D1B8E0252805D0641C34600699A8477F1CF3E78B97601C306087AC20464E
:20012000314600F0C1F88CAA2046314600F0DDF8306801787A2925D0682919D06A2908D039
:200140006C290ED0742908D04C2922D1879980221BE087990122D20217E0879901225203EC
:2001600013E0427887996C2A6AD10122120205E042788799682A66D101225202114387913F
:20018000801C05E08799012212030A438792401C0178441C346087A80173732913D06E299E
:2001A0001DD1879836490840411E02464A408A423DD900282DD04142014032484143C80E9B
:2001C00031A1085C26E087A80078400619D4009587A88CAA8BAB069900F046F92BE007AD4C
:2001E00087A98CAA284600F095F9024628460699029B9847411C059D00D0C5198B95039973
:200200001BE0009587A88CAA8BAB069900F0C9F811E02020401F082809D8C0467844007987
:2002200040008744210404151C04150404008C9802C88C900F6003998B9D681C1BD052E753
:20024000401C402201E0401C2022114387919FE7F8178C9904C98C9117605060EBE78C9834
:2002600002C88C900F70E6E78C9802C88C900F80E1E72F4600E0059F38467FB00EB0F0BDDA
:20028000603F000031B57C0700011C021D0E18031E16140F191104081F1B0D1715131007C7
:2002A0001A0C12060B050A0910B50A680124E3071AD01378302B0CD0232B0ED02B2B0AD08F
:2002C0002D2B04D00024202BF1D1042306E0012304E0102302E0022300E0082304681C439C
:2002E0000460521C0A60E1E710BDFEB516460D460446086802782A2A10D13068011D31601B
:2003000000686060002805D54042606020680121014321602868471C2F6017E00021303AFE
:20032000092A08D84218531C2B60435C6F467B545278491CF3E76A460023535412784718C7
:20034000002A03D0684605F01DFA606038782E2826D1781C286079782A2908D13068011D3A
:2003600031600068A0602868401C2860FEBD00203039092908D839188A1C2A604A786B46C6
:200380001A548978401CF3E76A46002111541078002804D0684605F0F5F9A060FEBDA160B1
:2003A000FEBDF0B587B01E460C9F13681C1D14601D68002D3AD0049106908468002C04D498
:2003C000284606F027F8844203D3284606F022F8044606984068A042039000DC20460146F2
:2003E00030680191401805940399A142029630600EDD06980078C0070AD1059801990E1A39
:200400000024B44204DA20200499B847641CF8E70026049C069805998E420ADA2868010A58
:2004200018D12D1D2146B847761CF3E70020B84718E00599039A8A4214DD0078C00711D088
:200440000198451A0024AC420CDA20200499B847641CF8E70020C0430299086006F09AF8C3
:200460005821016007B0F0BDF0B585B00C4606460A9D1068011D116000680490002844D0E0
:200480000393B768002F04D4049805F0D3FF874203D3049805F0CEFF074602967268BA4285
:2004A000114600DC3946039B1868009140180192BA4218600FDD02980078C0070BD1009843
:2004C000C01B039000260398864204DA20202146A847761CF7E70026BE4205DA0498805DC3
:2004E0002146A847761CF7E70198B84210DD02980078C0070CD00098C61B0027B74207DA87
:2005000020202146A8477F1CF8E700202146A84705B0F0BDF0B58BB004920D460446FF21C0
:200520000846FA30271868680590002609960691FE3120222046029205F098FE7F2080002E
:2005400021180A9103973E71287B0246613A172A08952BD8012393402546C34C23422C46CF
:2005600009D009A90AAA089D2846049B00F082F900260796B9E0712423422C46089D22D1BF
:20058000022A13D1049B1868021D1A600068C2B2534253410793069AFC32A2180A92087058
:2005A000286802218843286000269EE001464539032908D3252800D180E0412803D058288B
:2005C0000796CED092E00194049A1068C01D07218843014608311160076846682D7B2C46CB
:2005E0007B3C384631463A46334605F057FC002800D021E10120C007314681439B48484086
:2006000038431FD0F60F002007902846413806283FD9613D062D019C00D922E1A80002A2F1
:200620001058089D8746C046A9060000EB060000EB060000EB060000E1060000D506000096
:20064000C90600000022384631460792134604F05AFD1921CA436921049149216E254E23A3
:2006600066274626944200D33E46039AD670019C00D32B46937000D3049951703F21C90033
:2006800061180A910028089D14D02D20107004262BE0019C089DC04678440079400087440B
:2006A000032424241F1913000AAB38462A4601F0BFFC1AE02B201070032616E0002060705D
:2006C00025202070012086E00AAB38462A4601F0B5FD0AE00AAB38462A4604F017FE04E0FE
:2006E0000AAB38462A4603F055F8287B012501466F39092904D801228A405D490A4201D1A0
:2007000058286AD1059B0595E5180A9808990978C907274609D10399091D091A089A5268CB
:200720009142274601DC691A4F1C411C0698430000263846324605F0FFFC0A900799002901
:2007400003D0411C0A91067000E00146A94206D8481E691A491C202205F088FD2E70089D1B
:200760002878C00605D4391B2022204605F07EFD2CE0A7422AD0391B30262046324605F062
:2007800075FD09984142414105980140012905D12878400702D43846214604E03878611CB0
:2007A0002070781C3E702A7B412A0CD0582A05D0612A08D0782A01D0702A07D12B781B0717
:2007C00001D4612A02D142784A704670204605F031FE079940180BB0F0BD002E09D0012E9C
:2007E000059B90D101200990089801680220084007E0099A0898016802200840002A08D0CC
:20080000059B0A994A1E0A922D220A704542454179E70028059B08D1480700D473E70A989B
:20082000411E0A91029901706DE70A98411E0A912B210170002566E71920C543612241216D
:200840006E234E20AC4200D31846039BD87000D31146039A91700A92507000200790022691
:20086000019C089D41E7C04608C190000000F07F43020000F8B514460F4605468068002844
:2008800004D4286810218843286001E00120A860287B1026582808D0782806D0702804D04F
:2008A0006F2801D1082600E00A262846194600F055F8AA68002A09D102460A4306D1287865
:2008C000000749D52B7B0020024612E02B7B642B03D16423002905D40AE0692B08D10029E1
:2008E00006D5692301223A60002240428A4100E00A4600941146324600F0CEF8A968884241
:2009000006DA401C21684A1E226030220A70F5E7287B582803D0782801D070280FD1297800
:2009200009070CD5702800D1782021684A1E226008702068411E216030210170287B6F2876
:200940000AD12878000707D520684178302903D0411E216030210170F8BDC04610B5037B2C
:20096000702B05D10868021D0A60006800227BE002683E481040421E04465440944216D9E5
:20098000002807D04242024039485043C00E39A2105C00E02020401F082808D878440079A5
:2009A000400087444C04041E38041E04040000221846643814280DD801248440354804426F
:2009C0000AD12120044205D00868021D0A600068C21749E0582B46D10868031D0B60006880
:2009E00042E018466438142807D8012282402948024206D12120024203D10020582B02460B
:200A000032D10868C21D072082431046083008601068526828E0002218466438142807D831
:200A2000012484401B48044204D121200442CBD1582B18D10868031D0B60007814E0002237
:200A400018466438142807D8012484401148044204D121200442B7D1582B04D10868031D2D
:200A60000B60008800E01046114610BD603F000031B57C0700011C021D0E18031E16140F65
:200A8000191104081F1B0D17151310071A0C12060B050A0900081200FEB501920D46064623
:200AA000582B01D0174800E015480090089802903046284305D1029A1068411E1160302198
:200AC0000170019C3046284313D030462946224600F01AF807460D46224605F01BFB301A98
:200AE0000099085C029B19684A1E1A6008703E46E8E70298006805F09DFC401EFEBDC0467F
:200B000082720000A472000080B5102A06D0082A09D1C0084A078018C90880BD00090A07A1
:200B20008018090980BD002904D1114604F0CCFE002180BD002305F02FFC80BDF0B58BB0FD
:200B4000FD4E304602F028FD28217054002800D1EFE1FA490978012949D13388F8490A8851
:200B6000934200D20B80F74A1488A34200D9138073884C88A34200D24B805488A34200D92A
:200B80005380B3888C88A34200D28B809488A34200D99380F388CC88A34200D2CB80D48857
:200BA000A34200D9D38033890C89A34200D20B811489A34200D9138173894C89A34200D219
:200BC0004B815489A34200D95381B3898C89A34200D28B819489A34200D99381F389CC8906
:200BE000A34200D2CB81D1898B4200D9D38107907D200190C0000990D1480188D14802883B
:200C000000258A4228460DD933888B42099809D99342284606D2581A099C6043511A04F050
:200C200053FE201AC84C308287B2EB43C74A384629461E4605F06EFA04AA83C2A74201D888
:200C40000A9501E001200A90BD484188BD4842888A4228460896B84C0DD963888B420998A1
:200C600009D99342284606D2581A099E7043511A04F02AFE301A608284B2B54A20462946EE
:200C8000089B05F047FA0E4604994018049005984641AD480594844202D90A98401C0A90B3
:200CA000A7488188A74882888A4228460ED9A24883888B42099809D99342284606D2581A50
:200CC000099C6043511A04F0FFFD201A9A49888287B2A04A38462946089B05F01BFA0C463B
:200CE000049940180390744197480497874202D90A98401C0A909248C1889248C2888A42EE
:200D000028468D4E0DD9F3888B42099809D99342284606D2581A099F7843511A04F0D4FDB9
:200D2000381AF08287B28D20C24338462946089B05F0F0F90E46039940180390664182484A
:200D40000897874202D90A98401C0A907C4801897C4802898A4228460ED9774803898B42E2
:200D6000099809D99342284606D2581A099C6043511A04F0A9FD201A0699059A891802916A
:200D80006D49088387B28E22384629462B4605F0C1F90C4603994018059074416A4806973D
:200DA000874202D90A98401C0A90049802990E1863484189634842898A4228460ED95E48E8
:200DC00043898B42099809D99342284606D2581A099F7843511A04F077FD381A08997118B8
:200DE00004915549488387B26B208200384629462B4605F08FF90E4605994018089066414B
:200E00005148874202D90A98401C0A90069804990C184B4881894B4882898A4228460FD941
:200E2000454883898B4209980AD99342284607D2581A099B5843511A04F046FD0999081A95
:200E4000E4193D49888387B2434A384629462B4605F060F9089A80180690714108913A48F5
:200E6000874202D90A98401C0A90E6193448C1893448C2898A420ED92F48C089884209D98B
:200E8000904208D2401A099C6043511A04F01CFD251A00E0099D2848C583ADB270192A49B4
:200EA0008D4202D90A99491C0A91C708002201214A2F0B46204E00D81346099229243355F9
:200EC0000A9A1346083B5C425C412A23F454534253412B243355062A00D809992C22B15405
:200EE00005F0CEF8344606461C4903F0FDFB60624B2F1AD30198C200002128460B4605F0C8
:200F000009F9069A8018089A514104F0ABFA254604461449304603F05DFB0146204603F057
:200F2000E3FB28620E49086002E00D480068206207980BB0F0BDC0467C0820201D0A202031
:200F40004C0920203C0920208902000018FCFFFF36FDFFFF54FEFFFFCA0200000000FA454E
:200F6000A409202000007A44F0B585B0954F05F075FA029005F0A8FA009005F06FFA0190FC
:200F800038680125AC060440614261418E4A13788B420395C84801D1032103E00678002EF3
:200FA00018D0711E017000203968EB060B4059425941C44A12788A4204D1C34903220A7033
:200FC000002449E0C04C2678002E13D0711E2170002441E0651E2046A841039D002C27D10E
:200FE000002B17D0B64C2478002C21D1B34C2468009E17E05D1E1C46AC41039D002B28D175
:20100000002A18D0B24B1B78002B22D1AF4B1B68009E18E0A94C009E2660A94C0025257035
:20102000039D3446341B24097D2C01D3A44C257018401170B8E7A54B009E1E60A44B002580
:201040001D70039D3346F31A1B097D2B01D3A04B1D7014409B4A11703968AF030F407942AE
:2010600079419C4A13788B4204D19B4903220A7000262AE0984E3578002D03D0691E317035
:20108000002621E07D1E3E46AE41002F1AD1002B07D0934D2D78002D14D1904D2F68009D57
:2010A00009E08E4D009F2F60002705468C4807702846009D2F46ED1B2D097D2D02D3884D6F
:2010C000039F2F701E401170039D0028019F08D0042F06D82846B8401921084201D004F0F0
:2010E00073FB002C08D0042F06D82846B8401921084201D003F03AFB754800780128029C8E
:2011000007D170480078C00703D0022F01D104F039FF002E0AD005F0E9F9002802D005F030
:2011200013F903E0002F01D105F0BAF804A804F0F7FC002800D1BDE0FB2004406D4E6A4D1E
:201140000EE0890702F065FD034639687A68384605F02DFA04A804F0E3FC002800D1A9E056
:2011600005F0FCF9074605F073F904A9097832394629EFD87944097949008F44552A59488D
:20118000672A2A2A2A2A2A2A2A2A2A6B2A2B643D2A342A372A762A792A2A802A3A312A2A24
:2011A000402A2E2A2A2A2A2A2A2A2A5D2A2B273D2A342A372A932A882A2A452A3A312A2A81
:2011C0004C2A2E0080130A40180A2020B8680399B7E7BFE705F064F8BCE705F055F8B9E756
:2011E00004F0D0FEB6E705F075F9B3E705F07CF8B0E703F0BBFAADE705F0A6F8AAE7002C07
:2012000000D0A7E737490AE03868294639E0032004F046FD9EE7002C00D09BE7294602F020
:20122000F8FC05F039F995E7012004F039FD91E7022004F035FD8DE7002C00D08AE705F036
:2012400013F92D490CE0B86803217AE7042004F027FD7FE7002C00D07CE705F005F9314610
:2012600002F0D7FC05F01EF974E7786823491BE0002C00D06EE705F0E5F81C490DE03868E6
:20128000184902F0C6FC01467A68BB685FE7002C00D05FE705F0D6F8154902F0BAFC05F0A7
:2012A000F5F857E77868164902F0B3FC0246BB6839684CE705B0F0BD1A0A20207C09202059
:2012C000170A20201C0A20201E0A202080092020190A2020200A2020220A20208409202010
:2012E0001B0A2020000048C2000048420000C8C10000C8410000A0C10000A041CDCCCCBDFF
:20130000CDCCCC3DF0B591B00F90012548000D90400D5C00670D59401095EE070E40AB4909
:201320004D1E44198C4200D203E17C198C4200D2FFE0049610990C05611E00910B40002579
:20134000E9430E91A449019423430C93C01B40180290401C0390D0020A90500DD9020B9246
:2013600047189E48C41B3846294622462B4604F0D1FE4842294622462B4604F0CBFE4900E8
:20138000C00F4418204629463A462B4604F0C2FE4A42204629462B4604F0BCFE4900C00F10
:2013A0004418204629463A462B4604F0B3FE4A42204629462B4604F0ADFE4900C00F401885
:2013C000441E3846294622462B4604F0A3FE06460F460A98294622462B4604F09BFE7018B0
:2013E0006F411099081A0A902A46BA41204629462B4604F08FFEC20F49008918099146000B
:201400000A98294622462B4604F084FE4A00C00F8018CF0F341809994F41E13C0994AF41B5
:201420000F9AD00F0D9909180691520008920E98401E0D902E46AE41084630400346079038
:201440002046294604F066FE0A910698C043614AD1430143521A05922C466C4109982946EE
:20146000234604F057FE0690099138462946089A079B04F04FFE0890079138462946059A5C
:20148000234604F047FE05900A9A069BD0182B466B41079F3E400D9C089A224082185E41C1
:2014A000059838186941099A80186941841969410E98401C4748684181424BD20022019894
:2014C0008142109800D310460F9B01D3039A029281401F2242406708D7400F4384405E0546
:2014E000204639460B9A0C9B04F014FE40428E4102994A1E3449491E8A423EDC012A48DB49
:2015000000990F401205C10F73005B1840001099214040183A4304990A430021651C5141D9
:201520000B9E301A0C98984100D3254644D3114642E0002F28D024498F4204D0002823D019
:20154000884200D0F5E62248064300253146284611B0F0BD6008CA0784184F080F9806050D
:20156000204639460B9A0C9B04F0D4FD40428E41039A1549491E8A42C0DD1548049901431B
:201580000025284611B0F0BD00252946284611B0F0BD002A13D10E994C400E494F40274349
:2015A0000DD1019A56403043294605D1049911430025284611B0F0BD284611B0F0BD294627
:2015C000284611B0F0BDC046FF07000002F8FFFF0000F07FFFFF1F00FE03000033F30475FF
:2015E000F0B581B006460025294603F0BAFD00282C4600D134469F4885759F4D287D00280C
:2016000004D19E48072101F0AFFD28750026684604F06AFA002800D191E06D46287801F0D3
:201620000DFD284604F060FA002800D187E06D46287801F003FD284604F056FA00287ED018
:201640006D46287801F0FAFC284604F04DFA002875D06D46287801F0F1FC284604F044FA69
:2016600000286CD06D46287801F0E8FC284604F03BFA002863D06D46287801F0DFFC28465F
:2016800004F032FA00285AD06D46287801F0D6FC284604F029FA002851D06D46287801F0B0
:2016A000CDFC284604F020FA002848D06D46287801F0C4FC284604F017FA00283FD06D4644
:2016C000287801F0BBFC284604F00EFA002836D06D46287801F0B2FC284604F005FA0028AF
:2016E0002DD06D46287801F0A9FC284604F0FCF9002824D06D46287801F0A0FC284604F04F
:20170000F3F900281BD06D46287801F097FC284604F0EAF9002812D06D46287801F08EFCD6
:20172000284604F0E1F9002809D00F2535436846007801F083FC10361F2D00D267E75049DF
:201740000868504A1688504B1F880D68A8420BD0086816881F880D68A84205D0086816886E
:201760001F880968884203D148490A6890420FD14C4D2968204602F04CFA28604A4903F028
:201780000BFD00283C4F34D000243A4844756AE0002A07D0821A022A04D3374CE368D21889
:2017A000521EE2600124086030B204F045F90721CD06294602F00EFF354902F00BFF2D497D
:2017C000886034480178002915D033480088301A00B204F031F9294602F0FCFE2C4902F03F
:2017E000F9FE01462348406802F013FA2149486002E0002437E004702748068038B204F023
:201800001BF9294602F0E6FE244902F0E3FE1A4F797D01291CD1224F3968054602F0F9F978
:20182000064628463E60144FF98A4A1C91B2FA828A087D2A0CD3084604F022FC0146304610
:2018400002F052FF014628460A4AD16000217975084DE96802F0D8F9286001206875A875F0
:2018600010480021016004F029FE3861204601B0F0BDC046CC082020E40820205B73000002
:20188000CC092020020A2020040A20208C09202000003443210A2020FE0920200000FA445D
:2018A0008809202074092020CDCC4C3DF0B585B0A34EA44AA44F0120440604900105A34DD7
:2018C00010681F231B0698431060032042040020039104F093FC9948076042273068204297
:2018E00000D083E0284604F019FE306820427DD1284604F013FE3068204277D1284604F0DD
:201900000DFE3068204271D1284604F007FE306820426BD1284604F001FE3068204265D152
:20192000284604F0FBFD306820425FD1284604F0F5FD3068204259D1284604F0EFFD3068C5
:20194000204253D1284604F0E9FD306820424DD1284604F0E3FD3068204247D1284604F0EB
:20196000DDFD3068204241D1284604F0D7FD306820423BD1284604F0D1FD3068204235D115
:20198000284604F0CBFD306820422FD1284604F0C5FD3068204229D1284604F0BFFD306855
:2019A000204223D1284604F0B9FD306820421DD1284604F0B3FD3068204217D1284604F07B
:2019C000ADFD3068204211D1284604F0A7FD306820420BD1284604F0A1FD3068204205D1D5
:2019E000284604F09BFD163F00D077E75548806902900498020400200190039904F0FEFB76
:201A00004E485149016042273068204200D083E0284604F083FD306820427DD1284604F013
:201A20007DFD3068204277D1284604F077FD3068204271D1284604F071FD306820426BD1D2
:201A4000284604F06BFD3068204265D1284604F065FD306820425FD1284604F05FFD306848
:201A6000204259D1284604F059FD3068204253D1284604F053FD306820424DD1284604F0D8
:201A80004DFD3068204247D1284604F047FD3068204241D1284604F041FD306820423BD192
:201AA000284604F03BFD3068204235D1284604F035FD306820422FD1284604F02FFD3068D8
:201AC000204229D1284604F029FD3068204223D1284604F023FD306820421DD1284604F068
:201AE0001DFD3068204217D1284604F017FD3068204211D1284604F011FD306820420BD152
:201B0000284604F00BFD3068204205D1284604F005FD163F00D077E70A4881691735029882
:201B20004543284603F0D0FE094940180F2801D301980490049805B0F0BDC0462C030B408E
:201B400004020B4038010B400100000ED103000043F6FFFFF0B593B00F900492002A00D17E
:201B600044E1002B00D141E118980990002800D13CE10E935818129004980B460F99421821
:201B8000184610931E4604E0761C30B21299814233DD072331461193194001238B40C008B5
:201BA000C00193490D18D8430F9B1F4603E0DB1C1FB2BA42E8DDB1B23F2905D89CB27F2C2C
:201BC00002D8EC5D0440EC555C1C27B2BA42DBDD3F2905D8A4B27F2C02D8EC5D0440EC556A
:201BE0009C1C27B2BA42CFDD3F29E0D8A1B27F29DDD8E95D0140E955D9E70E98401E1290B1
:201C0000109A500F1018C51011998843101AD41329190391110B082211400F18D61B049817
:201C2000401E0321029003F04FFE4B1C0022032B009300D113461298C0080190B8B21190CE
:201C4000B0B210900498C01A0E90E801E10140180F994018664C201812900A93581E0B9011
:201C60000398C001401820180790059210460FE0069B581C0499099A52180992129980314F
:201C8000129107998031079101998B4200D1ADE00146039806914218551C0298022805994D
:201CA00058D30021099F03E0C91C0E9888424ED00F9840187F2814D8072A06D87C5C119BB5
:201CC0009C40129B5E5C26435E54072D09D87C5C109BDC40129B5E188027F35D2343F3552A
:201CE000099F431C7F2B17D8072A08D87B185B78119CA340129C641866781E436670072DCA
:201D00000AD87B185B78109CE340129C64188126A75D1F43A755099F801C7F28C4D8072AC1
:201D200008D878188078119B9840129B5B189C7804439C70072DB7D878188078109BD84022
:201D4000129B5B1882241E5D06431E55ACE7009803288DD00F984618099840180D90079899
:201D600040180C90059C089603E0A41CA74200D17EE737197F2F16D8072A07D80D98035D6D
:201D8000119883400C99085D18430855072D0AD80D98005D1099C8400C990B198026995DE7
:201DA00001439955089E0B98A04200D160E7781C7F280A9FD9D8072A09D80D980019407891
:201DC000119988400C9909194B7803434B70072DCBD80D98001940781099C8400C99091941
:201DE0008123CE5C0643CE54089EBEE713B0F0BD00002020F0B589B0784803F025FD04F008
:201E0000A5FB064604F0A6FB07463069396901F000FF3F21090602F0DDFB714D2860714C8D
:201E20002178022933D1704903F0ADF9002831D1059704F097FB01466D48036807A8674A75
:201E400002F076F80898049004F08CFB076A00213846029103F0A0F901240028069601D189
:201E6000E00747402D68634E3168284601F0CCFE039035606049384603F073F9002819D02D
:201E8000604800780028554D48D0002648E003F06FFF9EE0012004F035FB002003F0E6FFD6
:201EA00003F066FF04F010FB504908600420207009B0F0BD5149384603F053F90028474D9D
:201EC000029E34D14E48002101604E48022101704D49384602F07EFB4C4E314601F099FE03
:201EE00007464B4C214603F03CF9002800D13C462046314603F050F90028049F00D12646D3
:201F0000444804682046314603F02BF9411E884141490E68414900281FD120E0384806681D
:201F20003F49304603F038F90446401E8441354804700398314601F06CFE31490860364854
:201F40000668344804682046314603F00AF9411E88413449049F002801D0334801680846E5
:201F6000294602F037FB214601F053FE0446314603F012F9002800D12646254C30462146B3
:201F800003F0EFF8002800D13446224804603846214603F001F905460120C60766403846F7
:201FA000314603F0DEF8002800D13E46002D224600D1324607A81D4B214602F005F9089977
:201FC0000798059AD368069AD268044C009403F045F902F03FFD09B0F0BDC0460AD7A33B40
:201FE00078092020270A20200000AF45E4092020E8092020C00920200AD7A33DCDCC4C3E70
:20200000980920203C0A20200000FAC30000C84300004843300A2020340A20200000C8C383
:20202000000096440000C8C2380A202000002F44F0B5A5B0059308920D46074600260A96B5
:202040007A4C3246234603F067F8002800D12C46354600D13D46284621463246334603F094
:2020600049F846424641002807D10AAA2846214603F012F80A98401E0A900898007B0BAF1B
:20208000412801D06B4800E0694809900898806801903020049038700022284621460292F9
:2020A000134603F030F80121002801D0C80744400391781C0790002E0DD024AA28462146D1
:2020C00002F0EAFF249801210A1A2846214601F02DFD05460C462846214603F037FA064651
:2020E000079903F0E7F80690304603F077FF02460B462846214600F037FC04460D46019832
:20210000471C20D3079806994618002220462946134602F0EFFF002848D100222046294665
:20212000454B04F033FA04460D4603F00FFA0999095C771C317003F051FF04F0F4F90446AC
:202140000D463E46E1E70BA806994618002F16D07F1E002220462946374B04F017FA0446B6
:202160000D4603F0F3F90999095C3246761C517003F034FF04F0D7F904460D46E6E731785E
:20218000099C204604F01BF9001B08280EDB0196741E089D029F099E2178304604F00FF9D7
:2021A000801B0E2805DD2770641EF5E7089D029F04E00999081840782070019E37700A985B
:2021C000297B4129059C01D0702100E05021069E079F224603F01CF9AA68501C04D1384612
:2021E00004F028F9421EAA6038463146234603F06DFEA8680028039A02D128680007C20F94
:2022000038463146234602F025FE287B412801D0782000E0582021684A1E2260087020680B
:20222000411E21600499017025B0F0BD0000F0FF82720000A472000000003040F0B5A3B0CD
:202240001E460F46044603929168002903D0002904D5062100E001210398816007910AA800
:202260003021089101700022204639460992134602F049FF01210028049101D0C8074740C8
:20228000634D20463946614A2B4602F057FF00280BD00022204639465F4B04F073F90446E7
:2022A0000F460998401C0990EBE70025204639462A462B4602F01EFF002813D100222046D3
:2022C0003946544B02F01FFF00280BD0002220463946514B04F05AF904460F460998401E45
:2022E0000990E3E702960AA8461C2046394603F02DF90596314602F0DDFF079988420190F6
:2023000004DD481C0AA90B18085C20E0C9430E180AA90B180793581C06902046394603F0BA
:2023200015F903F05BFE02460B462046394600F01BFB0022384B04F029F904460F4603F072
:2023400005F9069B303007994870761CE2D3C0B23528029E039F0DD3581E0178491CCAB21E
:2023600001703A2A03D330210170401EF5E70AA9884241D0099801990C181D700220C04317
:20238000844202DBB868844207DD601E397B891EC9B2324603F03CF80124059804F04AF8E5
:2023A000401E0499A0421ADB0028089A01D4059A125C1346303B5D1EAB41C9431943C9073C
:2023C00005D13978090702D40025049905E031684B1E33600A7001250021401EE2E73868CC
:2023E000082202402A43501E824105982146334602F030FD23B0F0BD581E0021017009980E
:2024000001990818441C0AA80590B7E70000C0FFFFFFDF410000F03F00002440F0B58DB06B
:2024200007920890002201260B9149004F0D5900490D0C91694C651E09977919A1423146D1
:2024400000D31146F7070A971F460B9847400C984519A542344600D314465F4D0A980740FF
:20246000214301290AD10C98002800D184E0A8427BD0099800287FD0A84276D00096069742
:2024800000260125079A500DD90208180590D00203903146089C2246334603F03BFE049041
:2024A00007910195EF0705980743384631462246334603F02FFE089005910B98C0434949B5
:2024C000CA4302438A1A02923446744103983146234603F01FFE05460B913846049F314639
:2024E000029A234603F016FE3F4A17401540079AAA18334673410B9C20187141059C0019C0
:202500007141089C121958417141099B0C9CE318CC0221D4354C1B19C40F490009194000B2
:20252000D40F0019FC0F520012197D002A4C641EA342069F19DC019C2405002B21DD641EB2
:2025400021401B050B43194639436B420A9C2346934126D2401C2AE0244C1B195B1C1E4C5E
:202560003D46641EA342069FE5DD1D4807430026394630460DB0F0BD0026314630460DB006
:20258000F0BD1B4D6940C043002A15DB0843002B009916D0002817D0009800283146E8D16C
:2025A00017E06240154303D1019A024080187141064630460DB0F0BD01960843002B00995D
:2025C000E8D101990028E7D10091009800283146CFD12743CBE7C046FF07000002F8FFFF40
:2025E0000000F07FFFFF0F0000F8FFFF01FCFFFFFFFF1F00F0B589B0049105901178002997
:2026000000D1D3E01D461646002427460393029248B2002812D5E0200840C02824D0F0207F
:202620000840E0282FD0F8220A40601CF02A41D081B2715C00290446EAD1B7E007A801705B
:20264000002242700598381800B2062D00D19CE0082D00D0A3E00901574A5118574A8918A9
:2026600000910822102397E0601C07AA117080B2305C002800D199E00697A41C07A9487052
:202680000020887030E0601C07AA117080B2305C002800D18AE0A11C07AA507088B2305C4F
:2026A000002800D182E00697E41C07A988700020C87019E007AA117080B2305C002875D0CC
:2026C000A11C07AA507088B2305C00286ED0E11C07AA907088B2305C002867D00697241DEF
:2026E00007A9C87000200871314E307800282BD0002707A9304601F0B3FF002824D0781C6F
:2027000080B2252568432A490E18085C00281BD007A9304601F0A4FF002815D0B81C80B2B5
:20272000684323490E18085C00280DD007A9304601F096FF002807D0FF1CB8B245431C48D7
:202740004619405D0028D4D1039D062D0ED0082D069F18D105983818711D009100B210224C
:2027600004991346FFF7F6F910370CE00598069F38181049BA31009100B206220823049942
:20278000FFF7E8F9BF1D029E0BE006225143094B5918C039009108230499FFF7DBF9641CDE
:2027A0007F19A0B2315C002900D031E709B0F0BDEA6F0000B06B0000C065000000FEFFFF96
:2027C000F0B583B0664801250570019503F0D6FCAE2002F073FBD52002F070FB8020044613
:2027E00002F06CFBA82002F069FB3F2002F066FBD32002F063FB0026304602F05FFB402025
:2028000002F05CFBA12002F059FBC82002F056FBDA2002F053FB122002F050FB812002F001
:202820004DFBCF2002F04AFBD92002F047FBF12002F044FBDB2002F041FB302002F03EFB17
:20284000A42002F03BFBA62002F038FB8D2002F035FB142002F032FBAF2002F02FFB41480B
:20286000A902054603F009FDB02002F027FB1027384602F023FB304602F020FB2846214668
:2028800001F006F8B12002F019FB384602F016FB304602F013FB803528462146254600F096
:2028A000F7FFB22002F00AFB384602F007FB304602F004FB019C20022A490818294600F0CF
:2028C000E7FFB32002F0FAFA384602F0F7FA304602F0F4FA03200290C00122490818294632
:2028E00000F0D6FFB42002F0E9FA384602F0E6FA304602F0E3FA60021A4C2018294600F076
:20290000C7FFB52002F0DAFA384602F0D7FA304602F0D4FA0520C0012018294600F0B8FFAB
:20292000B62002F0CBFA384602F0C8FA304602F0C5FA029800022018294600F0A9FFB720FF
:2029400002F0BCFA384602F0B9FA304602F0B6FA0720C0012018294600F09AFF03B0F0BD1C
:20296000230A202000002020FCB40124E407634002E0FCB40124E40708B41D03ED08D60DF1
:20298000354356025F007F0D06D12C00344300D0AEE001B0FCBC7047A4082543072424021F
:2029A000FF34A74205D10020190D090501B0FCBC7047002B03D50024A61BAC4125000B03A9
:2029C000DB08C20D134342024800400D07D11C00144300D08CE00EBC1000F0BC704701242D
:2029E0006407234307242402FF34A04205D10020090D090501B0FCBC7047002903D5002441
:202A0000A21A9C412300C11B08D51C002B0025001400320026000024611A3800362925D539
:202A200002B4393949420C00203C03D22F008F40374301E03700A740002F01D040210E437D
:202A400002BC20290BD500290ED04C42203420B4A5402C0020BC0D41CE40361904E000292D
:202A60002E000D4120390E4192196B411C0014433ED00024002B04D5012400218A1A99416E
:202A80000B00401E52005B41FBD50121890215000D400CD0521800277B4101D3401C0BE0BC
:202AA0000721C90115000D4001D189008A43072109028A4352005B41801C19DD07210902E7
:202AC000FF31884209D30EBC0020C90F0902FF31C900C91D0905F0BC7047190B0005014396
:202AE000E40721431805120B104301B0FCBC70470021002001B0FCBC7047F0B589B017463E
:202B00000D460446002607931846314602F032FB002810D12846394601F076F83021615C01
:202B20000129089009D1216901F06EF8079901F0DBFD064605E0A76987E02246303201211B
:202B40001170E56A67697F20C005294601F05CF80146304601F03EFD06462846394601F0AA
:202B600039FD314601F055F805906061E5680898079901F02FFD0495294601F04AF80646E3
:202B8000656AA16A069102F007FB07463046294602F0E7FA002800D13546002F00D10695BC
:202BA000266860680290069901F014FD054603963046089E314601F00DFD294601F029F899
:202BC0000546A0680190059901F004FD294601F020F80546276A394602F0CCFA002806D0F8
:202BE000E1692846079102F0CEFA002819D10021304602F0B6FAE1690791002805D0284633
:202C0000394602F0C9FA00280BD10021304602F0C3FA00281CD02846079902F0A2FA00285E
:202C200016D00698E0602846394602F0B5FA06462846079902F095FA002800D10795002EA4
:202C400000D1079FA76108982061384609B0F0BD0298049901F0BEFC05460398314601F0C0
:202C6000B9FC294600F0D5FF05460198059901F0B1FC294600F0CDFF0546D4E7F0B58BB03B
:202C800047480078012800D087E002F0EFFF064603F0F6FB0A9003F0E1FB074603F0D8FB41
:202CA000099003F06FFB03F0E5FB401EC0B2032803D880003C49085800E03A4800903B4B98
:202CC00000200622014603F019F9781EC0B2032803D8800037490C5800E0354C7D20C70029
:202CE0003046394602F0F0FD4743F11B324A4A43D10C00AA13C2314B002610210622304694
:202D0000174603F0FBF803F0AFFB02F0FDFD04460D4603F097FB02F0F7FD00940195029023
:202D20000391274B20213046079608973A4603F0E5F8099802F0E8FD04460D460A9803F0A0
:202D400063F80094019502901E4B282130463A4603F0D4F803F002FC006802F0D5FD04468E
:202D60000D4603F0FBFB406802F0CEFD06460F4603F0F4FB806802F0C7FD00AAF0C20490A1
:202D80000591114B34210798089A03F0B7F800F081FB03F0BDFB024908700BB0F0BDC046C1
:202DA000240A202071730000C87200007D73000062730000B8720000CDCC000093720000FA
:202DC00070720000E872000044720000F0B585B000280DD0424A8B185B1E934208D3414F3A
:202DE000414B3A881B88D21A404B9343994206D943480168491C0160002005B0F0BD03900C
:202E00003B4A3C4B1868104018603E8804914C1E0321204602F058FD4A1C0021032A1046BE
:202E200000D10846022C02D2039B304A21E0029204990190091A04910021039B2B4A5F1833
:202E40005D5CB4B218462C4B1D55741C14407D781D55B41C1440BD781D550346F61C164045
:202E6000C91C049C8C42EAD1029C032C1D4F019811D05918204D0B78B4B22B55731C134068
:202E8000012807D04C78EC54B61C1640891C801EF1D100E01E463E80134C2088398888426D
:202EA00010D0154615481449026812060AD422888A5C82612288521C2A40228022883B88B9
:202EC0009A42F1D122883B880A4C2168084801400120D21A00D0C2021143216005B0F0BD9F
:202EE00001FEFFFF100A2020140A2020FF010000FFF7FFFF281010400004202008111040F4
:202F0000F0092020F0B585B01D46164630210290009101700024104619462246234602F05E
:202F2000F2F8002802D00120C00745400B9801900A9804903E4F304629463C4A3B4602F06B
:202F4000FDF8002809D00022304629463A4B03F019FB06460D46641CEDE7002730462946E9
:202F60003A463B4602F0C6F8002811D1002230462946304B02F0C7F8002809D000223046CA
:202F800029462D4B03F002FB06460D46641EE5E70298401C039004980019049030462946B6
:202FA00002F0D4FA039902F085F9039909180019019A10600498441C012C1ADB049130463B
:202FC000294602F0C3FA03F009F802460B4630462946FFF7C9FC0022174B03F0D7FA064612
:202FE0000D4602F0B3FA3030049A511C1070641EE4D1481E0278352A0DD3891E009C0A78D9
:20300000521CD3B20A703A2B02D30C70491EF6E7029A914203D00770039805B0F0BD07701C
:2030200001990868401C08600298F6E70000C0FFFFFFDF410000F03F00002440F0B581B005
:203040000146434A907A032874D8C04678440079400087440165081100200A296CD10A219B
:203060001170012163E00020042901465FD104219170032151725AE0507A431C537211540C
:20308000507A09285AD3002090721178FF2359404C0030490C5B250A56786640B3435B0082
:2030A000CB5A5D401C0A93786B40DBB25B00CB5A5C401D0AD37800935C40E4B264000C5BC7
:2030C0006540260A14796540EDB26D004D5B6E402F0A55796E40F6B276008E5B7740330AD7
:2030E00096797740FFB27F00C95B5940D379127A1202D2188A4224D1009800020019174973
:203100000880280280191649088013480168491C016014480168491C0160012001B0F0BDE9
:2031200000200329014602D1032151700221917201B0F0BD0020907201B0F0BD002001B06F
:20314000F0BD05494A68521C4A6001B0F0BDC0465C092020EA6D0000E4082020020A2020D2
:20316000040A2020CC092020F0B585B002460020002A78D00B46203B1E24E443A34272D3F9
:203180003A4B1E883A4B1B88F31A1F252C469C43A14268D80392374A374F386810403860F3
:2031A00004914C1E0321204602F08EFB4B1C0021032B184600D10846022C039A1FD3029386
:2031C00004990190091A049100215718545CB3B210462A4AD454731C2B407C78D454B31C8D
:2031E0002B40BC78D4540246F61C2E40C91C049B8B42EAD1029B032B1F4F019811D0511818
:203200001E4A0B78B4B21355731C2B40012807D04C78D454B61C2E40891C801EF1D100E0EA
:203220001E46124C2680124E3088218888420FD013481249026812060AD432888A5C826123
:203240003288521C2A403280328823889A42F1D1328823883968074801400120D21A00D0B4
:20326000C2021143396005B0F0BDC0460E0A2020120A2020FFF7FFFF28901040AC08202091
:2032800008911040F0B5364908390968CAB2122A64D801210B469340324C23421DD03248EB
:2032A00032490A68521C0A600168490756D43049304A324B304C05E00F88E5550E800568C9
:2032C0006D074BD4C5690E88761CF6B21788BE42F2D11D686D1C1D60F1E70B2A24D00C2A39
:2032E0003CD1274A1488274B1D88AC4210D01E4C254D264E27683F060AD41788EF5DA761DA
:2033000017887F1C37401780178818888742F1D110881B88124C2268C9028A43C31A00D132
:2033200019460A432260F0BD0F480168490715D40F49104A114B104C05E00F88E5550E800B
:2033400005686D070AD4C5690E88761CF6B21788BE42F2D11D686D1C1D60F1E7F0BDC04638
:20336000281010402C000400081110409C092020080A20200C0A202000062020DC09202034
:20338000140A2020100A202000042020FF010000F0B5394A8218394BC0183A4D4C790B7943
:2033A000002C22D0466F202B02D00524E70100E0354F2E40002B00D188273E434667846F6E
:2033C0002C403C438467446B2D4E34404463846B3440846300244465846554688F26F64328
:2033E000344054609468344094600C688979202B09D006467036002B15D1641E4460C46E4C
:203400002C40882715E0641E4460C46E2C401E4E3443C466046F2C40344304671B4D01247D
:203420006707064607E00527FF0164084460C46E2C403C43C46634682C403C433460C46A1F
:203440000F4D2C40C462046B2C4004630024C4640465C46F8F25ED432C40C46714682C40F1
:203460001460194302680A4B1340BD220A40D118891C0160F0BDC0468418000004180000E7
:203480008888FDFF24493E0001040000FFFFFFCF4000FFCFF0B581B0B02001F00FFD1025BE
:2034A000284601F00BFD0026304601F007FD394880240746214600F0EBF9B12001F0FEFCAB
:2034C000284601F0FBFC304601F0F8FC38468030214600F0DDF9B22001F0F0FC284601F0D2
:2034E000EDFC304601F0EAFC0127380229490818214600F0CDF9B32001F0E0FC284601F086
:20350000DDFC304601F0DAFC03200090C00121490818214600F0BCF9B42001F0CFFC28468D
:2035200001F0CCFC304601F0C9FC7802194F3818214600F0ADF9B52001F0C0FC284601F096
:20354000BDFC304601F0BAFC0520C0013818214600F09EF9B62001F0B1FC284601F0AEFCF4
:20356000304601F0ABFC009800023818214600F08FF9B72001F0A2FC284601F09FFC30469E
:2035800001F09CFC0720C0013818214600F080F901B0F0BD00002020F0B5002861D00546B3
:2035A0003149324B324A10780024012820463ED130480078012821D12F48007800281DD03F
:2035C0000120304E37682F8077686F80B668AE802D4E3768EF8077682F81B7686F81F7685E
:2035E000AF813669EE81294D2E68761C2E601D6805431D600D6805430D6018E01F48056821
:203600006D1C0560052D2CD318680125EE43304018600868304008601868284318600868B1
:2036200028430860164805686D1C05600020114D2C70114D2C70114D2C60154D2E680124E3
:20364000A70237432F60134D2E68270337432F605D68260235435D604B6833434B60147015
:20366000F0BD0020F0BDC04600310040001100401F0A202067092020160A2020F80920204E
:20368000D00920208062554080825540940920204810004048300040B0B53A4A80184A68A3
:2036A00042600A78222A56D8930001A4E3589F464D370000573700004D37000057370000F0
:2036C00057370000573700005737000057370000573700005737000057370000573700007A
:2036E000573700005737000057370000573700003D370000573700003D370000573700008E
:20370000573700005737000057370000573700005737000057370000573700005737000039
:20372000573700005737000057370000573700003D370000573700003D3700000368032449
:203740002407A343012464071B1903E0036803242407A34303600B69C360CB68C46A0A4D5C
:2037600025400A4C1C402B19C3620368084C1C400460097A114302683F239A431940511808
:203780000160B0BD041800008888FDFF777702007F00FFFFF0B59FB003930E460546049207
:2037A0009168002902D506210498816002910024344F2846314622463B4601F0ADFC0028A2
:2037C00000D13746264600D12E46304639462246234601F08FFC002820D100242A4D02F002
:2037E000AFFE01F090FC002809D0002230463946264B02F0CBFE06460F46641EEFE7234DF2
:2038000002F09EFE01F091FC002807D002F098FE02F0B8FE06460F46641CF1E7029905A82C
:203820000091019006A832463B46FFF76BFB0646059F022F049D08D1641C304602F0FAFDE9
:203840003018401E002101700127297B2046039C224601F0DDFDAA6830463946234602F0CA
:2038600035FB304602F0E6FD874203D128680007C20F00E0012230463946234601F0EAFA92
:203880001FB0F0BD0000F0FF0000F03F00002440F0B585B00F4605460124204602F016FC21
:2038A0000394204602F000FC0026304602F00EFC304602F0F9FB782000F07AFA2B4C21781D
:2038C00001402170402000F073FA217801402170002F3ED00497781E032101F0F5FF491C12
:2038E00003290F4600D13746049803281FD301910297C01B04900026AF19A85D00F058FA71
:20390000217801402170787800F052FA217801402170B87800F04CFA217801402170F61CC2
:203920000498B042E8D101980328029F11D0AD19287800F03DFA217801402170012F08D0FA
:20394000687800F035FA217801402170AD1CBF1EEED1002002F0BAFB039C204602F0A4FB3B
:20396000204602F0B3FB05B0F0BDC046230A202070B52C4984204861012253032A48036037
:203980000B464C3B85241C60D407284B1C60284CE51C0E46083E35600E1F35600D46103D5A
:2039A00082262E600D460C3D2C600D46203D2E600D461C3D2C600C46343C812525600C46F4
:2039C000303C25600D611B4C65630E46583E3560194D4D622560194C0C600D680D604C60E1
:2039E0004C684C601946303912070A601A46403A03210C031460124A1A600246303A114BB7
:203A000013600360104802680F231B04134303600E48026A09020A43026202680A4302606D
:203A200070BDC04664804240D0320A40D0120A40820004008C8042408100000281000C0051
:203A4000003000100310100090330A4028300A40F0B584B03049314A0125AC0316682B0207
:203A600003939E4316600E68264205D10E68264202D10E682642F6D06C02467E9769AF432C
:203A80002E40BD1995612025455DD6690327BE433D407519D561224D2E6807273740052685
:203AA0002E60466A33681362736853622F60C3695B065B0CD5697F263602B543EB18D3615B
:203AC000E8C8009707680197476802971B071B0B2D03ADB2ED1833071B0D007A009E354382
:203AE0001D43019B1D43029B1D43054390690D4B03400D482840C01890611068039B18439A
:203B000010600868204205D10868204202D108682042F6D004B0F0BD04020B4008010B404A
:203B2000001340408D00F0FF72FF0F00F8B515460C462B4E0A0D771C3A402A4B9A4213D0CB
:203B4000002A1AD10122D2079143014345D00022254B214602F01AFD0C4624498D4209DCB2
:203B6000234A244B214635E0214602462346FEF700FF31E0220D3A40363A5119B1420ADD73
:203B800002F008FD222101600120C00704401D482418002021E0012904DB174A14400905D0
:203BA00064181AE03522D24391420ADC02F0F2FC2221016012488542E6DA0120C0070440D9
:203BC000E7E70D4A144009051B2252058918214300220A4B02F0DAFC0C462146F8BDC04612
:203BE000FE070000FF07000000005043AF3CFFFF59F3F8C21F6EA501FFFF0F800000903CAC
:203C000051C300000000F07FFCB40127FF07794002E0FCB40127FF070C024D002D0E03D160
:203C2000002C52D1FCBC70473C43FF2D50D0A408002900D56442020243001B0E04D1002A3C
:203C400043D10800FCBC70473A43FF2B41D09208002800D552425E1B04D5170022003C002F
:203C600076422B00192E06D527003741D2191C27F71B7F42BC40002A27D002D552420127EF
:203C800000E00027013B5200FCD51500802635400FD01500202635402C43803208D21500CF
:203CA000402635402C4304D101263602B24300E05B1C5200023308DDFF2B0BD2500ADB058D
:203CC0001843FF073843FCBC70470020FCBC70470800C70FFF07FF20C0053843FCBC704758
:203CE000F0B52948014608390968CAB2122A09D801210B469340254C234204D02448016857
:203D0000491C0160F0BD0B2A23D00C2AFAD1214A1488214B1D88AC4210D0204C204D2668BA
:203D200036060BD41688AE5DA6611688761C1F273740178016881F88BE42F0D114881B88EF
:203D40000268C9028A43E31A00D119460A430260F0BD124801684907D4D41249124A0C4B0F
:203D6000124C05E00F88E5550E8005686D07C9D4C5690E88771C3F263E401788BE42F1D188
:203D80001D686D1C1D60F0E7289010402C000400D8092020120A20200E0A202008911040CB
:203DA000AC082020060A20200A0A2020A007202070B50646C00902F089F90124204602F059
:203DC00073F90025284602F06FF940203040800902F07CF9204602F067F9284602F064F955
:203DE00020203040400902F071F9204602F05CF9284602F059F910203040000902F066F915
:203E0000204602F051F9284602F04EF908203040C00802F05BF9204602F046F9284602F0BC
:203E200043F904203040800802F050F9204602F03BF9284602F038F902203040400802F006
:203E400045F9204602F030F9284602F02DF92640304602F03BF9204602F026F9284602F044
:203E600023F9204602F032F9204602F01DF902F075FA06466640284602F016F9304670BDD0
:203E8000F0B5B9B002F06EFB054602F05FFB044602F060FB0E9002F069FB064602F014FB4A
:203EA000109002F0DBFA0F9002F0E4FA0D9001F0DDFE0C9002F0E4FA01F0A6FF0B90286A94
:203EC000194900F087FB01F07FFE0746E06801F07BFE04460E98C06801F076FE0421715E30
:203EE0000622B25E2923EB5C089209930F9A00920D9A01920C9A02920B9A039204970594A4
:203F000006900791094A11A8A021109B01F0B0FB012806DB01469F2800D39F2111A8FEF706
:203F200055FF39B0F0BDC04600007A441C720000F0B583B00E462921715C01293ED117466C
:203F400001930290306A214C25682946FFF75CFE1F4900F03FFB2946FFF75BFE02462060D0
:203F60000120C40762401B48002529463B46FEF7C4FD0746A043184901F0F3F80028284682
:203F800001D1674038460746366A3046294601F0E8F8002800D066401049304600F01AFB15
:203FA00001460198FFF735FE0646074D294601F0D8F8002800D13546029801E0024D0027C3
:203FC000A0C003B0F0BDC04600004843900920203333333F1408202000002041000016C349
:203FE000F0B581B0234B244E01277C02234800210160321F10680F210902884300190092FE
:2040000010603046083801680322D2430A4002603068B84330603068184030601848FFF732
:2040200017FDFDF743FC00280BD0009A106810210143202081431160002001F05FFB01B01E
:20404000F0BD104D03E0FDF731FC0028EDD130680849084030603068390201433160286873
:204060002042F0D128682042EDD128682042F6D0E9E7C046FFFEFFFF08010B4008030B403A
:20408000F471000004020B40F0B58B4200D1824204D90B0002000021002040E0002B00D11C
:2040A000002A0CD10B00020000210020002B00D1002A01D0C943C04300F057FB2FE01C0038
:2040C00015000B0002000CB4002126002F00FF19764102D2491C4029F9D100201E001700F8
:2040E000FF19764102D2401C4028F9D10E1A21002800320002F072F80C0005000CBC002097
:204100000021A34200D1AA4201D3521BA341404149416D08E7073D436408761EF1D5059F5F
:20412000002F01D03A607B60F0BDFEE770B5194800248472048104604460174804604460E4
:204140008460C46004614461144D2C606C60AC60EC602C616C6112480480124804801248CC
:204160000460124804601248048012480470124804601248046000F061FF114E307000287E
:2041800005D010480721FEF7EFFF287534780120204070BD5C092020CC082020E40820200B
:2041A000020A2020040A2020CC0920208C092020FE092020210A202074092020880920203B
:2041C000290A202054730000F0B583B0029314460D46064608461146FFF71BFD07463060AF
:2041E00028462146FFF710FD0546019670603E4600243846214600F0B4FF0121CF070028E5
:20420000009600D07E402846214600F0AAFF002801D12F4600E06F40029C3846314600F08B
:20422000BBFF002800D137463846214600F0B4FF002815D00021384600F0AEFF00280FD076
:204240002046394600F050FA04460098214600F0C1F9019E30602846214600F0BBF97060D4
:2042600003B0F0BD002A49D084468B071CD1830722D1102A08D370B4103A78C978C0103A8F
:20428000FBD270BC103238D0042A2CD3082A05D30C2A01D308C908C008C908C008C908C0CF
:2042A00092072AD0920F22E00B780370491C401C521E22D08B07F7D1C30714D18307D8D074
:2042C000121F12D308C903801B0C4380001D121FF8D20AE008C903701B0A43701B0A837054
:2042E0001B0AC370001D121FF4D2121D05D00B780370491C401C521EF9D160467047704749
:20430000F0B5184A00211170174B197017480170174C2160174D2960174D2960174D29608E
:20432000174D10262E6020272F60164D2E602F60117019702160144A136801218C021C438C
:204340001460124A13680C031C431460104A13680C02234313600F4A136823431360017056
:20436000F0BDC04667092020160A20201F0A2020F809202094092020D0092020F40920209D
:2043800080E200E000E100E04810004048300040041100400431004010B51D491D4C204606
:2043A00002F004F81C49204601F0F6F81B4801680322D203914301600169194A0A404121F1
:2043C00089005118016141691B220A4324218A434261426801210A4043688B439A184260BD
:2043E000104A13688C021C43146002684B0413430360C26870231343C360C268022313433A
:2044000005229343C36002680A43026010BDC0468073000000001040287300000011104051
:204420000000FFFF2810104010B51D491D4C204601F0BCFF1C49204601F0AEF81B48016822
:204440000322D203914301600169194A0A40412189005118016141691B220A4324218A431A
:204460004261426801210A4043688B439A184260104A13688C021C43146002684B04134371
:204480000360C26870231343C360C2680223134305229343C36002680A43026010BDC046D2
:2044A000827300000080104032730000009110400000FFFF28901040F0B581B01C491D4C07
:2044C000204601F0B7FE1C492046FEF761FF1B4801681B4A0A400260002500952046294644
:2044E0002A462B4601F0F4FE204629462A4601F093FE7D204601204631462A4601F07AFF96
:2045000001270097204629462A462B4601F0E0FE204629463A4601F07FFE204631463A4637
:2045200001F068FF074887600321016001B0F0BDF1710000000087404C730000041887403F
:204540007F00FFFF0011874040B542004B005E08164301D006004E4000D4D01A04D20120AB
:20456000C90F06D1404204E003D90120C90F00D04042FF263606B24200D8B34200D90120E3
:2045800040BD40B542004B005E08164301D006004E4000D4D01A04D20120C90F06D1404292
:2045A00004E003D90120C90F00D04042FF263606B24200D8B34201D90120404240BD420012
:2045C0004B000020FF2109068A4200D88B4200D901207047FCB40127FF0706004E4001D4D8
:2045E000002600E03E00020243001B0E30D03A43FF2B30D00C024D002D0E29D03C43FF2D26
:2046000029D05B194240504042404C4061404C4000B501F02FFA20BCAE46424050404240AD
:204620004C4061404C4025001400002C01D46400013B803401D3013364087E3B08DDFF2BF7
:2046400009D2BC43200ADB0518433043FCBC70470020FCBC7047FF20C0053043FCBC7047E4
:20466000024670B50A4392072AD11E4DEE0104C808C9541B9443344017D0D0B2D9B2401AED
:204680002106014310D190B299B2401A210401430AD110021902000A090A401A2102014398
:2046A00002D1100E190E401A70BD9A42DFD010BA19BA884201D9012070BD0020C04370BDF1
:2046C00002780B7801300131002A09D09A4207D102780B7801300131002A01D09A42EFD0CD
:2046E000D01A70BD01010101FCB40127FF0706004E40F60FF607020243001B0E2DD03A4341
:20470000FF2B2DD00C024D002D0E26D03C43FF2D26D05B1B0020202164085208A242404143
:20472000A24200D3121B013904D0002A01D05200F4D18840384201D14000013B803001D361
:20474000013300E040007F3307DDFF2B08D2400ADB0518433043FCBC70470020FCBC704775
:20476000FF20C0053043FCBC70477047B0B5164D2878052827D001F0B9FE002823D100F07C
:20478000DFFF12480024046011480460114812490160124804601248047001F0B1FD01F06B
:2047A000E7FA01F0A9FE204601F0ACFE012001F05DFB01F089FE0B49086001F085FE0A491A
:2047C000086002202870B0BD270A202078092020C0092020300A20200000AF4398092020C2
:2047E0003C0A2020E0092020A009202010B51749174801F009F817484168174B0B400121D4
:204800000A049B1843608368144C1C408B06E3188360134B00241C6002245C6004249C601A
:204820000524DC6006241C61036813430360C82242610C4A136A0C0323431362136823431D
:20484000136002680A43026010BDC046447300000020004000310040FEFFECFFF8FFE0E0D2
:204860008031004028300040F0B581B01248134A42601348426013484260134C6260134D05
:204880006A60134E7260134F7A6013494A6013484260134A084B1A60094B1A60094B1A6016
:2048A00022602A6032603A600A600260102001F035FE01B0F0BDC04600080A40030000B136
:2048C00000280A4000088740000809400048084000881040000810400008004000280040D6
:2048E00001000026F8B5451C00780023082B32D02F78C2070CD16A780F241440E41C122CBF
:204900000BD102242E57F4B2002E08D4EE1C0EE06D1C4A1C0F7011461AE0AE1C08E02E1DAC
:20492000ED7800957F252C40009DED012C1912343D0112095219094DAA420ED0D243002C32
:2049400005D08D5C4F1C0D70641E3946F7E7354640085B1CCAE72846C5E7F8BDFF0F00000A
:20496000B0B50D460446401E844101290EDB01210022204601F0C8F97D20C000854200D3AC
:2049800005462046294600F011FCB0BD002D09D4012A17D1012120460A4601F0B5F97D205C
:2049A000C1000BE000210122204601F0ADF9684281B27D20C000814200D30146204600F09D
:2049C000F5FBB0BD00252046294600F0EFFB204629462A4601F098F9B0BD000010B501F0BC
:2049E00073FD0446FCF7C0FA15480168611A03D4611C016001F022FA12480168611A03D438
:204A0000611D0160FDF7F6F90F480168611A04D421460A31016001F04BF80C480168611A52
:204A200004D42146C8310160FFF72AFA08480168611A03D464340460FEF720F910BDC046DB
:204A4000B8092020AC092020BC092020B0092020B4092020F0B581B01A4C207A01282BD16A
:204A6000607AC00728D10020215E0422A35ECD1A2721C9438D4200DC0D462822282D00DB23
:204A800015465B19A3800225675F0625665FBF1B8F4200DC0F46282F00DB1746F119E18071
:204AA000094E327819B2FFF75BFF615F32780120FFF756FF01B0F0BD0348007800F061FA98
:204AC00001B0F0BD680920203D0A202070B50446049D10680E1A11605E4366602068801997
:204AE000206000F0A9FF1349FFF774FD20610021284600F051FB00281AD0304600F09CFF7C
:204B00000C49FFF767FD2946FFF7EEFDE5682946FFF77AF80849FFF75DFD2946FFF779F8FB
:204B2000E0600649FFF756FD0549FFF7DDFDA06070BDC046920A063E3333B33E0000704263
:204B40001A344C4310B51148002404601048048010482146224601F04DFC0F490F4848603E
:204B60000A68012002430A600D490C600D490C700D4A14700D4B02241C600D4B1C600D4B5E
:204B80001B689B059B0F0B70107010BDA8092020000A20200000094004180940FFFF000099
:204BA000D4092020260A2020250A202080E200E000E100E080330A40F0B583B01548019033
:204BC000154D00951548FF218E05154F002431463A46234601F018FA00950E480190114D09
:204BE000284631463A46234601F00EFA0B4801F009FC284601F006FC0B4804604460846005
:204C0000C460046144612046214600F0BBFE03B0F0BDC04600806D440000C842E007202028
:204C20009A99993E48082020FC082020FEB502930F46194D0024E143184E00973740019046
:204C400043422B46BB4101D20C4623E0084602990E405342B54101D204461BE0134601996D
:204C60000B433E431E43029D009E13D02B46334004D401998B1A3346AB4103E00199531A9A
:204C80002B46B341044605DB51406E400E43701E864134462046FEBD0000F07FFFFFFF7F1A
:204CA00010B514480068C0B2022821D112490846183800688005800F1AD0032002020F4800
:204CC00000688005800F0B6813430B600C490A78012A09D10B4A127892000B4B9A18125667
:204CE0000A4B1C68A2181A60064A10700120087010BDC0463011404048300A4080330A40EB
:204D0000250A2020260A2020D8720000D409202010B515490124A00700F076FD13484168F7
:204D2000134A0A402104521842608268114B134062069A188260104A02231360032353603B
:204D40000723936002680A430260C82141610B490A6AA3021A430A620A681A430A600168BA
:204D60002143016010BDC0463C73000000110040FEFFECFFF8FFE0E08011004028100040B3
:204D80000F48002101800F4801800F4801800F4801800F4801600F4801600F4801600F4813
:204DA00001680122D3029943016001680C4B0B43036050030B4908600B4908607047C0465C
:204DC000080A20200C0A2020100A2020140A2020DC0920209C092020F009202028101040A8
:204DE0001604020080E200E000E100E0F8B50446164F174D0E462E400120009464423C4635
:204E0000B4411AD31D405442AF4116D31046009C20433543054311D00020C0431C460C401D
:204E20000ED4009CA41A0C469C4106DB0098504059400143481E81410846F8BD0020F8BD21
:204E4000009C141B1C468C41F0DAF6E70000F07FFFFFFF7FF8B51C4617460E46054601F0CA
:204E6000E9FA0021012E03DB864201DCA919491E002F04D02268531E23602E231370324686
:204E8000824206DD23685F1E276030271F70521EF6E7B04200DB3046012808DBA9420BD391
:204EA00008782268531E23601070491EF6E72068411E216030210170F8BD0000F0B581B07B
:204EC00005460124204601F001F9204601F0ECF80026304601F0FAF8304601F0E5F878207B
:204EE000FEF766FF0D4F3978014039703046FEF75FFF3978014039702846FEF759FF397891
:204F000001403970304601F0E1F8204601F0CCF8204601F0DBF801B0F0BDC046230A202051
:204F20008446830706D0002A29D001700130013A8307F8D1042A1CD30906090E0B02194348
:204F40000B041943082A10D30B00102A09D370B40F24161B22400C000D003AC0103EFCD891
:204F600070BC082A01D30AC0083A042A01D302C0043A002A03D0013A8154013AFCD2604635
:204F8000704770B5012816D10025012428462146224600F0B9FE7D20C6002846314600F0BF
:204FA00005F920462146224600F0AEFE2046314600F0FCF870BD00242046214600F0F6F865
:204FC00020462146224600F09FFE01252846214600F0ECF828462146224600F095FE70BD53
:204FE00080B500F0B1FC01F0B9F801F0E7F800F0F7FA00F019FBFFF799F800F003F9FFF71F
:20500000DBFD01F061FA074908600748012101700648074901600748002101700648016043
:2050200080BDC046A0092020280A2020E809202000002F44270A2020780920200D48002186
:2050400001800D4801800D4801800D4801800D4801600D490A680120C3029A430A600A6830
:205060000A4B13430B60C103094A1160094A11607047C046060A20200A0A20200E0A202015
:20508000120A2020D8092020289010401604020080E200E000E100E070B514460F4D0B4640
:2050A0002B40002222600E4EB34215D81E46064312D01E0D07D100220A4B01F067FA0D40FB
:2050C0003522D2432B461B0D9A18074BD2182260064A0A400649511870BDC046FFFFFF7F5A
:2050E000FFFFEF7F0000504302FCFFFFFFFF0F800000E03F10B5FFF779FE002801D00020BE
:2051000010BD012010BD10B5FFF770FE002801DB002010BD012010BD10B5FFF767FE002884
:2051200001DD002010BD012010BD10B5FFF77EFD002801DA002010BD012010BD10B5FFF7E7
:2051400075FD002801DC002010BD012010BD000010B5FFF7F9F9002801D0002010BD012049
:2051600010BD10B5FFF7F0F9002801DB002010BD012010BD10B5FFF7E7F9002801DD00201E
:2051800010BD012010BD10B5FFF7FBF9002801DA002010BD012010BD10B5FFF7F2F90028F9
:2051A00001DC002010BD012010BD0000B0B57D23DA00914200D31146441E0246A2410D4C75
:2051C0000D4D0028204600D12846018088005901081A81B2094801F00DF92888218889B214
:2051E0000143481E81410648026801239A4351180160B0BDFC09202072092020000087408C
:2052000004188740B0B582B00C4801900C4800900C4D0D4900240D4B2846224600F0F4FE68
:205220007F20C2050A49284600F0EAFC0949284600F084FD0848046002B0B0BD0000AF437B
:205240000000AFC3140820200000964400004041000080BF9A99593F90092020F0B581B06C
:205260001C460D460146069E0F4F21C73A607B600E483346083FFDF740FC38610C48294631
:2052800022463346FDF739FC04467861386900F09BFC0546204600F097FC0146284600F0E0
:2052A00071FB01B0F0BDC046FC082020E007202048082020F0B587B00191064602AD00209A
:2052C000E874123537460A243846214600F04AF84443391BCA175140891A3031297009373F
:2052E0006D1E122F0746EED8002E01D46D1C01E02D20287002A8441B2246143201982946BE
:2053000001F04CF91334204607B0F0BDF0B5FFB086B01C4615460246A868002801D5062083
:20532000A8602368039304AB0090019305A80B46FDF7E8FD0646049FAA683946234600F0C1
:20534000C5FD20680399814201D0012202E028680007C20F304639462346FFF77BFD7FB06B
:2053600006B0F0BD1CB5002922D04C08002900D5494242105440002800D5404200230A006F
:20538000904201D95200FBE790425B41904200D3801A914201D25208F6E71900002C00D589
:2053A0004042640000D549420200080011001CBD01000020FEF7A3FF1CBD000010B50E4807
:2053C000002101F00FF881B20C4A1388C91A0D4B994201DB0B4602E001231B04CB180A4CEF
:2053E000A14201DD064BCB18084C2168591821601080084610BDC04600000940000A2020A5
:205400000000FFFF0180FFFFFF7F0000A80920207CB515460C460646C01731464140081A85
:20542000009200210A226423FBF736FB30460930122808D8DF202040502804D02868411E80
:20544000296030210170002E01D42B2000E02D2029684A1E2A6008702868411E296004709F
:205460007CBD00000CB5030008001900BE228646002803D407D1002905D10CBD0023494215
:205480008341180006D4013A4000CB0F184349000028F8D5803001D3013200E04000400A47
:2054A000D20510437346002B02D50122D20710430CBD000010B50B4800242146224600F0F4
:2054C00099FF09480460094804800948006809490C608005800F0849087008480121017073
:2054E00010BDC04600000940A8092020000A202080330A40D4092020260A2020250A20205C
:2055000080B50A490A4800F095FE0A480A49C1620022C267094B0360016309490A600360E1
:205520000849416008480121016080BDED70000000000940041809400100020012920010A7
:2055400084180940FFFF0000081109400CB54A00520D03231B02FF33D21A13D31F239A1A5F
:2055600012D98E46C9020123DB071943D1400B2A02D21532D04001437346002B00D5494246
:2055800008000CBD00200CBD0B000120C007002B00D401380CBD000070B511221302C21816
:2055A000C4580125AC43C4500C888D7825438C882C43C558084E2E40084D25407419C450E6
:2055C0008879CB790343087A184351687E23994318400818506070BDE798FDFF18670000DE
:2055E00080B5FFF7AFFAFFF765FF0B480021016041608160C1600161084801604160816070
:20560000C1600161FFF7DAFE0549086000F050FF0449086080BDC04614092020280920207E
:20562000C4092020C809202080B5FEF769FE0A48302100F022FE0948002101700848016074
:205640000848016041608160C16007480749016041608160C16080BD7C0820201D0A2020EB
:20566000A40920204C0920203C092020FF0FFF0F81B0B0B587B00C460B930592491E2246E4
:205680008A41A11A03910025049502900BA9069107480090074B05A802AAFAF711FD002CA0
:2056A00001D002990D7007B0B0BC02BC01B00847A55D00001963000010B500F005FF04469F
:2056C00000F0FAFD601C08490860601D0749086020460A30064908602046C830054908600E
:2056E00064340548046010BDB8092020AC092020BC092020B0092020B409202010B50E4987
:205700000E4A01235C0590600868204205D10868204202D108682042F6D010681B040343FA
:2057200013600868C00605D40868C00602D40868C006F6D510BDC04604020B4004010B4066
:2057400080B5FFF7B7FE0B480021016041608160C16001610848016041608160C1600161D9
:20576000FFF72CFE0549086000F0A2FE0449086080BDC0461409202028092020C4092020F0
:20578000C809202010B50F4A017853185B78401CDB06F9D42D2901D02B2901D1027801E071
:2057A000401E0A46431C0020303A092A05D80A24444310191A785B1CF6E72D2900D14042D5
:2057C00010BDC046F07000000A490878421CD3B2042B00D901220A70811E022901D208484E
:2057E00004E0012801D1054800E00348054908607047C046280A202000002F440000C843EF
:205800000000AF43E8092020F0B511221302C2180C780B4D46590B4F374003262640BC19EE
:20582000A9263606A41944514C68C55807263606B54334402C19C45048781061F0BDC04628
:2058400008080000FCFFFF0010B582B00446FFF7B5FD014600940848084A0023DB43FFF7A1
:2058600035F900F025FE014600940548054A0123FFF72CF902B010BD14092020C409202048
:2058800028092020C809202070B586B01D460C460592491E22468A41A11A03910026049636
:2058A000029007480090074B05A802AA2946FAF707FC002C01D002990E7006B070BDC0466A
:2058C000D75D0000316300001CB50A0017D000230124E407A04200D20400944201D9520051
:2058E000FBE790425B41904200D3801A914201D25208F6E719000200080011001CBD01002E
:205900000020FEF7FCFC1CBD08B443001B0E0FD0FF2B11D00721C9015B18C10FC9020B4341
:20592000010048074902090B1B05194308BC70470021002008BC704701004002C90DC90023
:20594000C91D090508BC70470948002101600948016801229143016007490A601104074BD2
:205960001960074B19600168114301607047C046EC092020045808404850084080E200E00D
:2059800000E100E010B50B4A904200DC10460A4B984200DB1846094C2080914203DD99423D
:2059A00004DA618010BD11469942FADB1946618010BDC0464AFCFFFFB60300006809202093
:2059C00080B5FEF751FFFDF7D3FFFEF709FBFEF773FDFFF795FD00F0BFF8FEF725FDFEF7EE
:2059E000DBFCFFF795F9FEF701FF00F021FB02489C210022425480BD0007202070B50A4891
:205A00000A4C84420CD00A4D0A4EB54208D02A686968501C12789200A25890470835F4E73C
:205A200000BF00BF70BDC046B0730000A4730000B8730000C873000006B49E22002802D49D
:205A400004D106BC7047414204D400E00100013A4900FCD5803101D3013200E04900490A33
:205A6000D2051143002802D50122D2071143080006BC7047FCB4020C0B0CFF242402FF34DA
:205A8000204021400C00444315005D4306005E430F005743320C3B0CA818C01832043B041B
:205AA0000025A1186841C9186841FCBC7047000010B50B4C2078022811D100F005FD094962
:205AC0000968401AC0087D2809D3012000F01AFD002000F0CBF900F04BF90320207010BD02
:205AE000270A2020A009202010B50146002000290FD0084A1388084C2488A34209D01088D5
:205B0000064B185C08701088401C3F2101401180012010BD0A0A2020060A2020A0072020A9
:205B200010B50146002000290ED0084A1388084C2488A34208D01088064B185C087010881B
:205B4000401CC0B21080012010BDC0460C0A2020080A20200006202010B50849084C204635
:205B600000F068FB07492046FDF796FD064801680122114301600548026010BDB572000063
:205B8000004008405C720000285008400851084070B5002815D10024064620462146FFF7E8
:205BA00005FB20462146224600F0AEF8012528462146FFF7FBFA28462146224600F0A4F86B
:205BC000304600F0D5FB70BD06B54100090E7F390DD41F22511A0CD9864600020122D2075B
:205BE0001043C8407246002A00D5404206BD002006BD02000120C007002A00D4401E06BD62
:205C0000F0B581B014460E46054641628262C76838461146FFF7C0FA009038463146FFF7FF
:205C2000A0FA002800D13E460098002800D13446EC6001B0F0BDB0B500F04CF80024204675
:205C40002146FFF7B3FA012528462146FFF7AEFA20462146224600F057F8284621462246F0
:205C600000F052F8204600F083FBB0BD80B509480078022802D100F027FC04E0C01E0128B0
:205C800005D80548006805490968401A80BD002080BDC046270A2020E4092020E0092020F2
:205CA00007490870C11E022901D2084804E0022801D1054800E00348054908607047C04624
:205CC000280A202000002F440000C8430000AF43E8092020084800210180084801800120CD
:205CE0000107074A11600749086002220A6002030A6000050860704772092020FC09202001
:205D0000A0120A40A0320A4070B50124250526030223002800D0344600D02B46064805465D
:205D200010350029014600D129460C60002A00D12846036070BDC04690320A40F0B581B021
:205D40000E4600907F20C50508462946FFF724FA0446002730463946FFF703FA002800D1D3
:205D60003746002C00D13D460098C56201B0F0BD80B5094800F046FB084800F043FB084983
:205D80000020086048608860C860086148610146FFF7F8FD80BDC046E00720204808202085
:205DA000FC08202070B514460D4601466A68A86882420CD9101A8442264600D306462868F0
:205DC000324600F0EBFB286880192860A8680019A860204670BD70B514460D4601466A6815
:205DE000A86882420CD9101A8442264600D306462868324600F0D2FB286880192860A868E9
:205E00000019A860204670BD06B5002803D57346FFF7DAFE06BD4100090E7F3908D31F229D
:205E2000511A07D300020122D2071043C84006BD002006BD0020401E06BD000080B5094857
:205E4000FBF7CEFBFAF77AFE002809D000F08AFB2921405C012803D100F036FB02490860F1
:205E600080BDC0466F12833AA0092020B0B5094D697A01244C40044006D1002028606860DE
:205E800005480078FFF77DF82C722046FFF780FEB0BDC046680920203D0A202070B5094C35
:205EA00021402340002501244042074E30468841204600D3284651429E4100D32C462043FD
:205EC00070BDC046FFFFFF7F0000F07FF8B51C4615460646571800F0ADFA711E012D0CDB44
:205EE0003022012F02DB874200DCCA5D23685E1E26601A707F1E6D1EF0E7F8BDF0B5C3B094
:205F00001F4601920D46064648AB02930120010203AC20463A46FFF7B7FC304629462246B3
:205F2000019BFCF767FB43B0F0BD000007480068C0B2002809D00B2803D1054801210170BF
:205F4000704704480168491C016070472010004067092020F409202007480068C0B20028AA
:205F600009D00D2803D1054801210170704704480168491C0160704720300040160A202086
:205F8000F409202080B5012000F0BCFA0020FFF76DFFFFF7EDFE00F097FA034908600348E5
:205FA0000421017080BDC046E4092020270A202007480021CA43026042608260C260054898
:205FC000016041608160C16003480121017070474C0920203C0920201D0A202004B40422C9
:205FE000002802D1002104BC704701D50832404212021F320100521E4900FCD30805090B6D
:206000001205114304BC704770B5059C049D074E046245628462C6623024002606554EC0E4
:20602000066046608660C56070BDC046CDCC4C3F074808490268D2430A4207D00268D24331
:206040000A4203D00268D2430A42F3D17047C04604020B40000A2000084880F3088800BF48
:2060600000BF00F0A8FA002801D0FFF7C7FC002000F03EF8012000F095FAC0460080202071
:2060800002B49E21002805D401D102BC704701394000FCD5803001D3013100E04000400AD8
:2060A000C905084302BC704780B5074901221203002801D0403101E00A6030310A602820CD
:2060C00000F02CFA80BDC046A0120A4080B5074901225203002801D0403101E00A60303158
:2060E0000A60282000F01AFA80BDC046A0120A40074800F013FAFFF763FCFEF771FFFFF7AF
:20610000DBFAFEF76BFCFEF769FCFEF767FCF8E700D4300030B514004C4325001C00444369
:206120006419050010002900FFF7A4FC001904000D002100280030BDB0B504460020002BB4
:2061400008D0D2B20D782570954204D0641C491C5B1EF7D1B0BD601CB0BD00000548064906
:20616000C165C26DC2650166026E026601600168016070479080424081000E0080B501200B
:206180000103054A11644003106411601060282000F0C4F980BDC046A0120A4010B5064957
:2061A00000240C604C60012002020A81FEF7E9FE2046FFF7EDFC10BD6809202080B50548D2
:2061C000002101810160416003480170FFF733FD80BDC046680920203D0A202018B52023AD
:2061E0009B1A04D8010000205B42994004E004009140DC402143904018BD000008431043FB
:2062000004490A683F231B049A431840101808607047C04638010B4010B592008018044AFB
:2062200083580724A404A34321405918815010BD3018000010B50122120383180C789C60FA
:206240004B7883508978014A815010BD0C11000004480068C0B2012803D103480168491C65
:206260000160704720500840EC0920200B4611461A4680B5FEF754FE80BD0A46002180B5B2
:20628000FEF74EFE80BD000080B5FFF787FFFFF76FFD02480521017080BDC046270A2020D8
:2062A00080B50020FFF7E2FDFFF782FE01480121017080BD270A202080B5FEF761FDFCF739
:2062C0007FFA00F025F90149087080BD240A202010B5029CA400001911431943014A8150DE
:2062E00010BDC046501800000348002101600348C18201214175704788092020E40820207C
:2063000080B5034800F07EF802480021016080BD14082020900920204B688A689A4204D202
:206320000A68531C0B6010708A68521C8A6070474B688A689A4204D20A68531C0B6010706D
:206340008A68521C8A60704780B500F0C9F802480021017080BDC046270A20200348006813
:20636000012149030140480B7047C04680130A400349002800D110310120000708607047B4
:2063800090120A4080B5034801218902FFF775FF80BDC0460000202040B584B002AE009688
:2063A000FDF772FE029A039B04B040BD10B50122120383180C789C604978815010BD02789D
:2063C000914204D0002A01D0401CF8E70020704780B50B4603214258C11D184600F0DEF8C3
:2063E00080BD000089004018014940587047C0461018000092008018014A81507047C046B5
:2064000010180000302100224254C260026142618261704700214258091D002AFBD1081F8B
:206420008010704780B50A46032141581046FFF724FF80BD0021425C491C002AFBD1481EA7
:2064400070470000014800687047C046340A2020014800687047C046E80920200148007839
:206460007047C046270A2020014800687047C046380A2020014800787047C046280A20200E
:20648000014800687047C04678092020014908607047C046340A2020014908607047C04671
:2064A000E8092020014908607047C046380A2020014800687047C046D4092020014800687E
:2064C0007047C046D8092020014800687047C046EC0920200148002141607047CC08202065
:2064E00001480021017070471D0A2020014800787047C0461D0A20200148002141727047EA
:2065000068092020014908707047C0463D0A2020014800787047C046230A2020811E091F12
:2065200000BFFCD2704702460B4620462946FFE782B00094014C019410BD00BF69290000FD
:206540000022304639462B4670470000004870471409202000487047280920200048704731
:2065600014082020004870477C082020004870476809202080B5FDF7B3FB80BD80B5FCF710
:2065800081FE80BD80B5FAF7BDFE80BD80B5FBF745FF80BD004870472C0A202080B5FDF7DB
:2065A00061FE80BD00F001F8FEE700BF70470EC0704751E5704701207047000000000000B1
:2065C00000000000000000000000000000000000000000F800000000000000333000000060
:2065E00000160E00160E0000000000000000000040C07840C0784000043F04043F04040091
:20660000007088FC08300000001820FF211E0000F008F000E018000000211C031E211E005B
:2066200000F00888700000001E21232419272110000000160E00000000000000000000004F
:20664000000000E018040200000000071820400000020418E0000000004020180700000040
:20666000404080F0804040000202010F01020200000000F0000000000101011F01010100FC
:20668000000000000000000000B070000000000000000000000000000001010101010101D3
:2066A0000000000000000000003030000000000000000000806018040060180601000000FF
:2066C00000E010080810E000000F102020100F00001010F8000000000020203F2020000075
:2066E0000070080808887000003028242221300000300888884830000018202020110E00D4
:206700000000C02010F8000000070424243F240000F80888880808000019212020110E0022
:2067200000E0108888180000000F112020110E0000380808C83808000000003F0000000033
:206740000070880808887000001C222121221C0000E010080810E0000000312222110F00F6
:20676000000000C0C00000000000003030000000000000C0C0000000000080B07000000019
:206780000000804020100800000102040810200040404040404040000404040404040400E6
:2067A00000081020408000000020100804020100007048080808F00000000030360100007B
:2067C000C030C828E810E0000718272423140B000000C038E0000000203C2302022738207B
:2067E00008F8888888700000203F202020110E00C0300808080838000718202020100800D4
:2068000008F808080810E000203F202020100F0008F88888E8081000203F20202320180088
:2068200008F88888E8081000203F200003000000C03008080838000007182020221E0200E5
:2068400008F808000008F808203F210101213F20000808F8080800000020203F202000004F
:2068600000000808F8080800C08080807F00000008F888C028180800203F200126382000B3
:2068800008F8080000000000203F20202020300008F8F800F8F80800203F003F003F2000F4
:2068A00008F830C00008F808203F200007183F00E01008080810E0000F10202020100F006D
:2068C00008F808080808F000203F210101010000E01008080810E0000F18242438504F00E7
:2068E00008F8888888887000203F2000030C302000708808080838000038202121221C000A
:20690000180808F8080818000000203F2000000008F808000008F808001F202020201F00E2
:206920000878880000C83808000007380E010000F80800F80008F800033C0700073C030075
